{
  "deployments": [
    {
      "transactions": [
        {
          "hash": "0x89d7b61a9596eee01ffa92d3fc5511326343f71a81ec08d6392ec7a8e3894b78",
          "transactionType": "CALL",
          "contractName": null,
          "contractAddress": "0x82119d1846a18a2677469bb529d54f740b7f9cd6",
          "function": "setArbContract(address)",
          "arguments": [
            "0x05d14D69D43e72370402FDeF2CA656Ddc5A606BF"
          ],
          "transaction": {
            "from": "0x8c0686723804a0b7201151852c94bd17dd043c21",
            "to": "0x82119d1846a18a2677469bb529d54f740b7f9cd6",
            "gas": "0x9ca2",
            "value": "0x0",
            "input": "0xdbd2e76000000000000000000000000005d14d69d43e72370402fdef2ca656ddc5a606bf",
            "nonce": "0x24",
            "chainId": "0xaa36a7"
          },
          "additionalContracts": [],
          "isFixedGasLimit": false
        }
      ],
      "receipts": [
        {
          "status": "0x1",
          "cumulativeGasUsed": "0xff28ac",
          "logs": [],
          "logsBloom": "0x00000000000000000000000000000000000000000000000000000000000000000000000000000000000000000000000000000000000000000000000000000000000000000000000000000000000000000000000000000000000000000000000000000000000000000000000000000000000000000000000000000000000000000000000000000000000000000000000000000000000000000000000000000000000000000000000000000000000000000000000000000000000000000000000000000000000000000000000000000000000000000000000000000000000000000000000000000000000000000000000000000000000000000000000000000000",
          "type": "0x2",
          "transactionHash": "0x89d7b61a9596eee01ffa92d3fc5511326343f71a81ec08d6392ec7a8e3894b78",
          "transactionIndex": "0x80",
          "blockHash": "0xf97b5ce4c608428326c21a2b8f374b5b7c2d9f330d08b0bf5637468658cb237e",
          "blockNumber": "0x7981f0",
          "gasUsed": "0x7167",
          "effectiveGasPrice": "0x40a4c8",
          "blobGasUsed": "0x0",
          "from": "0x8c0686723804a0b7201151852c94bd17dd043c21",
          "to": "0x82119d1846a18a2677469bb529d54f740b7f9cd6",
          "contractAddress": null
        }
      ],
      "libraries": [],
      "pending": [],
      "returns": {},
      "timestamp": 1742724748,
      "chain": 11155111,
      "commit": "76ce9e9"
    },
    {
      "transactions": [
        {
          "hash": "0x8528369ed106b37c6120819a58c7c3ec9e1b8a392d8bc80b63040d64c0138502",
          "transactionType": "CALL",
          "contractName": null,
          "contractAddress": "0x05d14d69d43e72370402fdef2ca656ddc5a606bf",
          "function": "setEthereumContract(address)",
          "arguments": [
            "0x82119D1846A18A2677469BB529d54f740b7f9cD6"
          ],
          "transaction": {
            "from": "0x8c0686723804a0b7201151852c94bd17dd043c21",
            "to": "0x05d14d69d43e72370402fdef2ca656ddc5a606bf",
            "gas": "0xec11",
            "value": "0x0",
            "input": "0x0804294000000000000000000000000082119d1846a18a2677469bb529d54f740b7f9cd6",
            "nonce": "0x62",
            "chainId": "0x66eee"
          },
          "additionalContracts": [],
          "isFixedGasLimit": false
        }
      ],
      "receipts": [
        {
          "status": "0x1",
          "cumulativeGasUsed": "0xb419",
          "logs": [],
          "logsBloom": "0x00000000000000000000000000000000000000000000000000000000000000000000000000000000000000000000000000000000000000000000000000000000000000000000000000000000000000000000000000000000000000000000000000000000000000000000000000000000000000000000000000000000000000000000000000000000000000000000000000000000000000000000000000000000000000000000000000000000000000000000000000000000000000000000000000000000000000000000000000000000000000000000000000000000000000000000000000000000000000000000000000000000000000000000000000000000",
          "type": "0x2",
          "transactionHash": "0x8528369ed106b37c6120819a58c7c3ec9e1b8a392d8bc80b63040d64c0138502",
          "transactionIndex": "0x1",
          "blockHash": "0xc4faf8cab1852f02fe825a0dbc11fdf0f972a2fc894de59bb1ba7fa2a3c3432b",
          "blockNumber": "0x80cd141",
          "gasUsed": "0xb419",
          "effectiveGasPrice": "0x5f5e100",
          "from": "0x8c0686723804a0b7201151852c94bd17dd043c21",
          "to": "0x05d14d69d43e72370402fdef2ca656ddc5a606bf",
          "contractAddress": null,
          "gasUsedForL1": "0x0",
          "l1BlockNumber": "0x7981ef",
          "timeboosted": false
        }
      ],
      "libraries": [],
      "pending": [],
      "returns": {},
      "timestamp": 1742724750,
      "chain": 421614,
      "commit": "76ce9e9"
    }
  ],
  "timestamp": 1742724761
}