{
  "deployments": [
    {
      "transactions": [
        {
          "hash": "0x6fe895dbe79e2dfee64784e792120ba7e4aed4014af29a1e59f76551fa084248",
          "transactionType": "CALL",
          "contractName": null,
          "contractAddress": "0x778cd2d813a9e5c28d8a08907e5c4e9f4dad384c",
          "function": "setArbContract(address)",
          "arguments": [
            "0x6ecBB5A5cB067e7c8a72C48fa313347E3fe1274d"
          ],
          "transaction": {
            "from": "0x8c0686723804a0b7201151852c94bd17dd043c21",
            "to": "0x778cd2d813a9e5c28d8a08907e5c4e9f4dad384c",
            "gas": "0x9ca2",
            "value": "0x0",
            "input": "0xdbd2e7600000000000000000000000006ecbb5a5cb067e7c8a72c48fa313347e3fe1274d",
            "nonce": "0x12",
            "chainId": "0xaa36a7"
          },
          "additionalContracts": [],
          "isFixedGasLimit": false
        }
      ],
      "receipts": [
        {
          "status": "0x1",
          "cumulativeGasUsed": "0xde1759",
          "logs": [],
          "logsBloom": "0x00000000000000000000000000000000000000000000000000000000000000000000000000000000000000000000000000000000000000000000000000000000000000000000000000000000000000000000000000000000000000000000000000000000000000000000000000000000000000000000000000000000000000000000000000000000000000000000000000000000000000000000000000000000000000000000000000000000000000000000000000000000000000000000000000000000000000000000000000000000000000000000000000000000000000000000000000000000000000000000000000000000000000000000000000000000",
          "type": "0x2",
          "transactionHash": "0x6fe895dbe79e2dfee64784e792120ba7e4aed4014af29a1e59f76551fa084248",
          "transactionIndex": "0x8a",
          "blockHash": "0x8c93a73815239491dba3b991f118033409c8e28791affa8b6fb9ecef0eec0aa7",
          "blockNumber": "0x796f73",
          "gasUsed": "0x7167",
          "effectiveGasPrice": "0x3bc3dd",
          "blobGasUsed": "0x0",
          "from": "0x8c0686723804a0b7201151852c94bd17dd043c21",
          "to": "0x778cd2d813a9e5c28d8a08907e5c4e9f4dad384c",
          "contractAddress": null
        }
      ],
      "libraries": [],
      "pending": [],
      "returns": {},
      "timestamp": 1742667891,
      "chain": 11155111,
      "commit": "76ce9e9"
    },
    {
      "transactions": [
        {
          "hash": "0x3c70334486932f51baebe4870d9147d4785a97985529d875a9c97feddf7d34c7",
          "transactionType": "CALL",
          "contractName": null,
          "contractAddress": "0x6ecbb5a5cb067e7c8a72c48fa313347e3fe1274d",
          "function": "setEthereumContract(address)",
          "arguments": [
            "0x778cd2D813a9E5C28D8A08907e5c4E9f4dAd384c"
          ],
          "transaction": {
            "from": "0x8c0686723804a0b7201151852c94bd17dd043c21",
            "to": "0x6ecbb5a5cb067e7c8a72c48fa313347e3fe1274d",
            "gas": "0xec11",
            "value": "0x0",
            "input": "0x08042940000000000000000000000000778cd2d813a9e5c28d8a08907e5c4e9f4dad384c",
            "nonce": "0x4f",
            "chainId": "0x66eee"
          },
          "additionalContracts": [],
          "isFixedGasLimit": false
        }
      ],
      "receipts": [
        {
          "status": "0x1",
          "cumulativeGasUsed": "0xb419",
          "logs": [],
          "logsBloom": "0x00000000000000000000000000000000000000000000000000000000000000000000000000000000000000000000000000000000000000000000000000000000000000000000000000000000000000000000000000000000000000000000000000000000000000000000000000000000000000000000000000000000000000000000000000000000000000000000000000000000000000000000000000000000000000000000000000000000000000000000000000000000000000000000000000000000000000000000000000000000000000000000000000000000000000000000000000000000000000000000000000000000000000000000000000000000",
          "type": "0x2",
          "transactionHash": "0x3c70334486932f51baebe4870d9147d4785a97985529d875a9c97feddf7d34c7",
          "transactionIndex": "0x1",
          "blockHash": "0x2f147c349827f50eceb89ea827aedc94dea9ef76dbd7febd6a9cdef1d27084f3",
          "blockNumber": "0x8099ff8",
          "gasUsed": "0xb419",
          "effectiveGasPrice": "0x5f5e100",
          "from": "0x8c0686723804a0b7201151852c94bd17dd043c21",
          "to": "0x6ecbb5a5cb067e7c8a72c48fa313347e3fe1274d",
          "contractAddress": null,
          "gasUsedForL1": "0x0",
          "l1BlockNumber": "0x796f72",
          "timeboosted": false
        }
      ],
      "libraries": [],
      "pending": [],
      "returns": {},
      "timestamp": 1742667892,
      "chain": 421614,
      "commit": "76ce9e9"
    }
  ],
  "timestamp": 1742667918
}