{
  "deployments": [
    {
      "transactions": [
        {
          "hash": "0x3571933d0a032bcfe7cfbd8f7f7f262c265f14a68b211e1fadc21317e4cb57fe",
          "transactionType": "CALL",
          "contractName": null,
          "contractAddress": "0x82119d1846a18a2677469bb529d54f740b7f9cd6",
          "function": "setArbContract(address)",
          "arguments": [
            "0xa9Bbe7938BB128b16E2c784Ba436991fBe8F72c3"
          ],
          "transaction": {
            "from": "0x8c0686723804a0b7201151852c94bd17dd043c21",
            "to": "0x82119d1846a18a2677469bb529d54f740b7f9cd6",
            "gas": "0x9ca2",
            "value": "0x0",
            "input": "0xdbd2e760000000000000000000000000a9bbe7938bb128b16e2c784ba436991fbe8f72c3",
            "nonce": "0x28",
            "chainId": "0xaa36a7"
          },
          "additionalContracts": [],
          "isFixedGasLimit": false
        }
      ],
      "receipts": [
        {
          "status": "0x1",
          "cumulativeGasUsed": "0xe179c1",
          "logs": [],
          "logsBloom": "0x00000000000000000000000000000000000000000000000000000000000000000000000000000000000000000000000000000000000000000000000000000000000000000000000000000000000000000000000000000000000000000000000000000000000000000000000000000000000000000000000000000000000000000000000000000000000000000000000000000000000000000000000000000000000000000000000000000000000000000000000000000000000000000000000000000000000000000000000000000000000000000000000000000000000000000000000000000000000000000000000000000000000000000000000000000000",
          "type": "0x2",
          "transactionHash": "0x3571933d0a032bcfe7cfbd8f7f7f262c265f14a68b211e1fadc21317e4cb57fe",
          "transactionIndex": "0x50",
          "blockHash": "0x694d2c272e57a272ae2c66aa60fbcde182b8a64213af7eacf0d26f80b9a820ee",
          "blockNumber": "0x798abb",
          "gasUsed": "0x7167",
          "effectiveGasPrice": "0x3a0daa",
          "blobGasUsed": "0x0",
          "from": "0x8c0686723804a0b7201151852c94bd17dd043c21",
          "to": "0x82119d1846a18a2677469bb529d54f740b7f9cd6",
          "contractAddress": null
        }
      ],
      "libraries": [],
      "pending": [],
      "returns": {},
      "timestamp": 1742751775,
      "chain": 11155111,
      "commit": "76ce9e9"
    },
    {
      "transactions": [
        {
          "hash": "0x77eef45718786045fa954978dd1a23f94183f4ac5c79290eb6fca6cc40896fe8",
          "transactionType": "CALL",
          "contractName": null,
          "contractAddress": "0xa9bbe7938bb128b16e2c784ba436991fbe8f72c3",
          "function": "setEthereumContract(address)",
          "arguments": [
            "0x82119D1846A18A2677469BB529d54f740b7f9cD6"
          ],
          "transaction": {
            "from": "0x8c0686723804a0b7201151852c94bd17dd043c21",
            "to": "0xa9bbe7938bb128b16e2c784ba436991fbe8f72c3",
            "gas": "0xec18",
            "value": "0x0",
            "input": "0x0804294000000000000000000000000082119d1846a18a2677469bb529d54f740b7f9cd6",
            "nonce": "0x67",
            "chainId": "0x66eee"
          },
          "additionalContracts": [],
          "isFixedGasLimit": false
        }
      ],
      "receipts": [
        {
          "status": "0x1",
          "cumulativeGasUsed": "0xb41f",
          "logs": [],
          "logsBloom": "0x00000000000000000000000000000000000000000000000000000000000000000000000000000000000000000000000000000000000000000000000000000000000000000000000000000000000000000000000000000000000000000000000000000000000000000000000000000000000000000000000000000000000000000000000000000000000000000000000000000000000000000000000000000000000000000000000000000000000000000000000000000000000000000000000000000000000000000000000000000000000000000000000000000000000000000000000000000000000000000000000000000000000000000000000000000000",
          "type": "0x2",
          "transactionHash": "0x77eef45718786045fa954978dd1a23f94183f4ac5c79290eb6fca6cc40896fe8",
          "transactionIndex": "0x1",
          "blockHash": "0x83aca891c5e5fd2f898d59930b620d028041dbd7ea3673ad1dbc76f736f59abe",
          "blockNumber": "0x80e6901",
          "gasUsed": "0xb41f",
          "effectiveGasPrice": "0x5f5e100",
          "from": "0x8c0686723804a0b7201151852c94bd17dd043c21",
          "to": "0xa9bbe7938bb128b16e2c784ba436991fbe8f72c3",
          "contractAddress": null,
          "gasUsedForL1": "0x0",
          "l1BlockNumber": "0x798aba",
          "timeboosted": false
        }
      ],
      "libraries": [],
      "pending": [],
      "returns": {},
      "timestamp": 1742751776,
      "chain": 421614,
      "commit": "76ce9e9"
    }
  ],
  "timestamp": 1742751784
}