{
  "deployments": [
    {
      "transactions": [
        {
          "hash": "0x67c8675ea6a53f8531a342360f96edc0ed19a55c6265a44fc7105e49ad1aa02a",
          "transactionType": "CALL",
          "contractName": null,
          "contractAddress": "0xf557e74664e591c2b5f586ae6f9edea90c07a7b0",
          "function": "setRemoteContract(address)",
          "arguments": [
            "0x46385011bF1a73868290A52af187554E113AB537"
          ],
          "transaction": {
            "from": "0x8c0686723804a0b7201151852c94bd17dd043c21",
            "to": "0xf557e74664e591c2b5f586ae6f9edea90c07a7b0",
            "gas": "0xf8a9",
            "value": "0x0",
            "input": "0xc0afb3f400000000000000000000000046385011bf1a73868290a52af187554e113ab537",
            "nonce": "0x8",
            "chainId": "0xaa37dc"
          },
          "additionalContracts": [],
          "isFixedGasLimit": false
        }
      ],
      "receipts": [
        {
          "status": "0x1",
          "cumulativeGasUsed": "0x2010e5",
          "logs": [],
          "logsBloom": "0x00000000000000000000000000000000000000000000000000000000000000000000000000000000000000000000000000000000000000000000000000000000000000000000000000000000000000000000000000000000000000000000000000000000000000000000000000000000000000000000000000000000000000000000000000000000000000000000000000000000000000000000000000000000000000000000000000000000000000000000000000000000000000000000000000000000000000000000000000000000000000000000000000000000000000000000000000000000000000000000000000000000000000000000000000000000",
          "type": "0x2",
          "transactionHash": "0x67c8675ea6a53f8531a342360f96edc0ed19a55c6265a44fc7105e49ad1aa02a",
          "transactionIndex": "0xd",
          "blockHash": "0xf8435f0bb990a4c90fcc4f88e3652d08369661987525e3635d511f49c867d839",
          "blockNumber": "0x18367a3",
          "gasUsed": "0xb407",
          "effectiveGasPrice": "0xf435b",
          "from": "0x8c0686723804a0b7201151852c94bd17dd043c21",
          "to": "0xf557e74664e591c2b5f586ae6f9edea90c07a7b0",
          "contractAddress": null,
          "l1BaseFeeScalar": "0x1db0",
          "l1BlobBaseFee": "0x1",
          "l1BlobBaseFeeScalar": "0xd2730",
          "l1Fee": "0x8ae5b00b9",
          "l1GasPrice": "0xb6c26e59",
          "l1GasUsed": "0x640"
        }
      ],
      "libraries": [],
      "pending": [],
      "returns": {},
      "timestamp": 1742580463,
      "chain": 11155420,
      "commit": "1bbde15"
    },
    {
      "transactions": [
        {
          "hash": "0xf2bd602b4b8cae489076c6c51c1224eccd75023af8531090664a07efd0758170",
          "transactionType": "CALL",
          "contractName": null,
          "contractAddress": "0x46385011bf1a73868290a52af187554e113ab537",
          "function": "setOptimismContract(address)",
          "arguments": [
            "0xf557E74664e591C2B5F586AE6F9edeA90c07a7b0"
          ],
          "transaction": {
            "from": "0x8c0686723804a0b7201151852c94bd17dd043c21",
            "to": "0x46385011bf1a73868290a52af187554e113ab537",
            "gas": "0x11164",
            "value": "0x0",
            "input": "0xa48cb37a000000000000000000000000f557e74664e591c2b5f586ae6f9edea90c07a7b0",
            "nonce": "0x31",
            "chainId": "0x66eee"
          },
          "additionalContracts": [],
          "isFixedGasLimit": false
        }
      ],
      "receipts": [
        {
          "status": "0x1",
          "cumulativeGasUsed": "0xc88d",
          "logs": [],
          "logsBloom": "0x00000000000000000000000000000000000000000000000000000000000000000000000000000000000000000000000000000000000000000000000000000000000000000000000000000000000000000000000000000000000000000000000000000000000000000000000000000000000000000000000000000000000000000000000000000000000000000000000000000000000000000000000000000000000000000000000000000000000000000000000000000000000000000000000000000000000000000000000000000000000000000000000000000000000000000000000000000000000000000000000000000000000000000000000000000000",
          "type": "0x2",
          "transactionHash": "0xf2bd602b4b8cae489076c6c51c1224eccd75023af8531090664a07efd0758170",
          "transactionIndex": "0x1",
          "blockHash": "0x3af3df00c6056ddbb9af16a4f957a9a1cf99473960140509301386ae0ad0fc26",
          "blockNumber": "0x804aa12",
          "gasUsed": "0xc88d",
          "effectiveGasPrice": "0x5f5e100",
          "from": "0x8c0686723804a0b7201151852c94bd17dd043c21",
          "to": "0x46385011bf1a73868290a52af187554e113ab537",
          "contractAddress": null,
          "gasUsedForL1": "0x1459",
          "l1BlockNumber": "0x79530c",
          "timeboosted": false
        }
      ],
      "libraries": [],
      "pending": [],
      "returns": {},
      "timestamp": 1742580464,
      "chain": 421614,
      "commit": "1bbde15"
    }
  ],
  "timestamp": 1742580470
}