{
  "deployments": [
    {
      "transactions": [
        {
          "hash": "0x083bc5b74e51a0d220f4cc4b2187bfd562b491964aca1708108273a96b6e58e5",
          "transactionType": "CALL",
          "contractName": null,
          "contractAddress": "0xf557e74664e591c2b5f586ae6f9edea90c07a7b0",
          "function": "setRemoteContract(address)",
          "arguments": [
            "0xb17e0E03EeFC7e7A71f57b755C9Ab23f25C60c26"
          ],
          "transaction": {
            "from": "0x8c0686723804a0b7201151852c94bd17dd043c21",
            "to": "0xf557e74664e591c2b5f586ae6f9edea90c07a7b0",
            "gas": "0xa599",
            "value": "0x0",
            "input": "0xc0afb3f4000000000000000000000000b17e0e03eefc7e7a71f57b755c9ab23f25c60c26",
            "nonce": "0xa",
            "chainId": "0xaa37dc"
          },
          "additionalContracts": [],
          "isFixedGasLimit": false
        }
      ],
      "receipts": [
        {
          "status": "0x1",
          "cumulativeGasUsed": "0x1e162c",
          "logs": [],
          "logsBloom": "0x00000000000000000000000000000000000000000000000000000000000000000000000000000000000000000000000000000000000000000000000000000000000000000000000000000000000000000000000000000000000000000000000000000000000000000000000000000000000000000000000000000000000000000000000000000000000000000000000000000000000000000000000000000000000000000000000000000000000000000000000000000000000000000000000000000000000000000000000000000000000000000000000000000000000000000000000000000000000000000000000000000000000000000000000000000000",
          "type": "0x2",
          "transactionHash": "0x083bc5b74e51a0d220f4cc4b2187bfd562b491964aca1708108273a96b6e58e5",
          "transactionIndex": "0xb",
          "blockHash": "0xbe4c88b85f825d7d0a82988708163aea07e54c3a9dfc2730d27ec806623fb318",
          "blockNumber": "0x18369b0",
          "gasUsed": "0x713b",
          "effectiveGasPrice": "0xf4347",
          "from": "0x8c0686723804a0b7201151852c94bd17dd043c21",
          "to": "0xf557e74664e591c2b5f586ae6f9edea90c07a7b0",
          "contractAddress": null,
          "l1BaseFeeScalar": "0x1db0",
          "l1BlobBaseFee": "0x1",
          "l1BlobBaseFeeScalar": "0xd2730",
          "l1Fee": "0x3f99f5a491",
          "l1GasPrice": "0x53afa1874",
          "l1GasUsed": "0x640"
        }
      ],
      "libraries": [],
      "pending": [],
      "returns": {},
      "timestamp": 1742581513,
      "chain": 11155420,
      "commit": "1bbde15"
    },
    {
      "transactions": [
        {
          "hash": "0xafbc7a40087bfdb05f51a8aa3bd70441d14a15e001b83991a0c3b21b5c75f522",
          "transactionType": "CALL",
          "contractName": null,
          "contractAddress": "0xb17e0e03eefc7e7a71f57b755c9ab23f25c60c26",
          "function": "setOptimismContract(address)",
          "arguments": [
            "0xf557E74664e591C2B5F586AE6F9edeA90c07a7b0"
          ],
          "transaction": {
            "from": "0x8c0686723804a0b7201151852c94bd17dd043c21",
            "to": "0xb17e0e03eefc7e7a71f57b755c9ab23f25c60c26",
            "gas": "0xf137",
            "value": "0x0",
            "input": "0xa48cb37a000000000000000000000000f557e74664e591c2b5f586ae6f9edea90c07a7b0",
            "nonce": "0x34",
            "chainId": "0x66eee"
          },
          "additionalContracts": [],
          "isFixedGasLimit": false
        }
      ],
      "receipts": [
        {
          "status": "0x1",
          "cumulativeGasUsed": "0xb715",
          "logs": [],
          "logsBloom": "0x00000000000000000000000000000000000000000000000000000000000000000000000000000000000000000000000000000000000000000000000000000000000000000000000000000000000000000000000000000000000000000000000000000000000000000000000000000000000000000000000000000000000000000000000000000000000000000000000000000000000000000000000000000000000000000000000000000000000000000000000000000000000000000000000000000000000000000000000000000000000000000000000000000000000000000000000000000000000000000000000000000000000000000000000000000000",
          "type": "0x2",
          "transactionHash": "0xafbc7a40087bfdb05f51a8aa3bd70441d14a15e001b83991a0c3b21b5c75f522",
          "transactionIndex": "0x1",
          "blockHash": "0x220b605297b8429d48c61842db106b1225306ab957342a159fc6d7acc4dd2e78",
          "blockNumber": "0x804ba0f",
          "gasUsed": "0xb715",
          "effectiveGasPrice": "0x5f5e100",
          "from": "0x8c0686723804a0b7201151852c94bd17dd043c21",
          "to": "0xb17e0e03eefc7e7a71f57b755c9ab23f25c60c26",
          "contractAddress": null,
          "gasUsedForL1": "0x2e1",
          "l1BlockNumber": "0x795364",
          "timeboosted": false
        }
      ],
      "libraries": [],
      "pending": [],
      "returns": {},
      "timestamp": 1742581514,
      "chain": 421614,
      "commit": "1bbde15"
    }
  ],
  "timestamp": 1742581520
}