{
  "deployments": [
    {
      "transactions": [
        {
          "hash": "0xc4210f4d2ab28f4cc62f64abdebf7eedcf81a4894a22faaf1113e5f7280f108b",
          "transactionType": "CALL",
          "contractName": null,
          "contractAddress": "0x82119d1846a18a2677469bb529d54f740b7f9cd6",
          "function": "setArbContract(address)",
          "arguments": [
            "0xAC8DCC9A035e49B71b78fc9b858e4D4cCb388271"
          ],
          "transaction": {
            "from": "0x8c0686723804a0b7201151852c94bd17dd043c21",
            "to": "0x82119d1846a18a2677469bb529d54f740b7f9cd6",
            "gas": "0x9ca2",
            "value": "0x0",
            "input": "0xdbd2e760000000000000000000000000ac8dcc9a035e49b71b78fc9b858e4d4ccb388271",
            "nonce": "0x20",
            "chainId": "0xaa36a7"
          },
          "additionalContracts": [],
          "isFixedGasLimit": false
        }
      ],
      "receipts": [
        {
          "status": "0x1",
          "cumulativeGasUsed": "0xdad483",
          "logs": [],
          "logsBloom": "0x00000000000000000000000000000000000000000000000000000000000000000000000000000000000000000000000000000000000000000000000000000000000000000000000000000000000000000000000000000000000000000000000000000000000000000000000000000000000000000000000000000000000000000000000000000000000000000000000000000000000000000000000000000000000000000000000000000000000000000000000000000000000000000000000000000000000000000000000000000000000000000000000000000000000000000000000000000000000000000000000000000000000000000000000000000000",
          "type": "0x2",
          "transactionHash": "0xc4210f4d2ab28f4cc62f64abdebf7eedcf81a4894a22faaf1113e5f7280f108b",
          "transactionIndex": "0x93",
          "blockHash": "0x3ff51bfc172d64c81a7b15008cb9c5228e9da61601feba1f1c351e9f59430c70",
          "blockNumber": "0x7980be",
          "gasUsed": "0x7167",
          "effectiveGasPrice": "0x3d406d",
          "blobGasUsed": "0x0",
          "from": "0x8c0686723804a0b7201151852c94bd17dd043c21",
          "to": "0x82119d1846a18a2677469bb529d54f740b7f9cd6",
          "contractAddress": null
        }
      ],
      "libraries": [],
      "pending": [],
      "returns": {},
      "timestamp": 1742721065,
      "chain": 11155111,
      "commit": "76ce9e9"
    },
    {
      "transactions": [
        {
          "hash": "0x79bd2ea673bd3742ca343413c48f96172006f05b91ee7cd5d9cae8f7c7bc99b6",
          "transactionType": "CALL",
          "contractName": null,
          "contractAddress": "0xac8dcc9a035e49b71b78fc9b858e4d4ccb388271",
          "function": "setEthereumContract(address)",
          "arguments": [
            "0x82119D1846A18A2677469BB529d54f740b7f9cD6"
          ],
          "transaction": {
            "from": "0x8c0686723804a0b7201151852c94bd17dd043c21",
            "to": "0xac8dcc9a035e49b71b78fc9b858e4d4ccb388271",
            "gas": "0xec11",
            "value": "0x0",
            "input": "0x0804294000000000000000000000000082119d1846a18a2677469bb529d54f740b7f9cd6",
            "nonce": "0x5e",
            "chainId": "0x66eee"
          },
          "additionalContracts": [],
          "isFixedGasLimit": false
        }
      ],
      "receipts": [
        {
          "status": "0x1",
          "cumulativeGasUsed": "0xb419",
          "logs": [],
          "logsBloom": "0x00000000000000000000000000000000000000000000000000000000000000000000000000000000000000000000000000000000000000000000000000000000000000000000000000000000000000000000000000000000000000000000000000000000000000000000000000000000000000000000000000000000000000000000000000000000000000000000000000000000000000000000000000000000000000000000000000000000000000000000000000000000000000000000000000000000000000000000000000000000000000000000000000000000000000000000000000000000000000000000000000000000000000000000000000000000",
          "type": "0x2",
          "transactionHash": "0x79bd2ea673bd3742ca343413c48f96172006f05b91ee7cd5d9cae8f7c7bc99b6",
          "transactionIndex": "0x1",
          "blockHash": "0x12168158a7d3ee8c6283bb6c96791db048905b279a97220e8d4432f9e0425bb3",
          "blockNumber": "0x80c9ac6",
          "gasUsed": "0xb419",
          "effectiveGasPrice": "0x5f5e100",
          "from": "0x8c0686723804a0b7201151852c94bd17dd043c21",
          "to": "0xac8dcc9a035e49b71b78fc9b858e4d4ccb388271",
          "contractAddress": null,
          "gasUsedForL1": "0x0",
          "l1BlockNumber": "0x7980bd",
          "timeboosted": false
        }
      ],
      "libraries": [],
      "pending": [],
      "returns": {},
      "timestamp": 1742721066,
      "chain": 421614,
      "commit": "76ce9e9"
    }
  ],
  "timestamp": 1742721075
}