{
  "deployments": [
    {
      "transactions": [
        {
          "hash": "0xc506c258c5606dba89a207d0af76d2ae805c3018c105347d8fbb1cc66f6f360c",
          "transactionType": "CALL",
          "contractName": null,
          "contractAddress": "0x82119d1846a18a2677469bb529d54f740b7f9cd6",
          "function": "setArbContract(address)",
          "arguments": [
            "0xcD05c42F95750b2D688Cf01B9a8693d5Fd98c4e3"
          ],
          "transaction": {
            "from": "0x8c0686723804a0b7201151852c94bd17dd043c21",
            "to": "0x82119d1846a18a2677469bb529d54f740b7f9cd6",
            "gas": "0x9ca2",
            "value": "0x0",
            "input": "0xdbd2e760000000000000000000000000cd05c42f95750b2d688cf01b9a8693d5fd98c4e3",
            "nonce": "0x1e",
            "chainId": "0xaa36a7"
          },
          "additionalContracts": [],
          "isFixedGasLimit": false
        }
      ],
      "receipts": [
        {
          "status": "0x1",
          "cumulativeGasUsed": "0x916dbc",
          "logs": [],
          "logsBloom": "0x00000000000000000000000000000000000000000000000000000000000000000000000000000000000000000000000000000000000000000000000000000000000000000000000000000000000000000000000000000000000000000000000000000000000000000000000000000000000000000000000000000000000000000000000000000000000000000000000000000000000000000000000000000000000000000000000000000000000000000000000000000000000000000000000000000000000000000000000000000000000000000000000000000000000000000000000000000000000000000000000000000000000000000000000000000000",
          "type": "0x2",
          "transactionHash": "0xc506c258c5606dba89a207d0af76d2ae805c3018c105347d8fbb1cc66f6f360c",
          "transactionIndex": "0x43",
          "blockHash": "0x0fe45a255d5341d1e7034a5d65d9a0b363e061eb6032698647c1b2ab5a5d71ef",
          "blockNumber": "0x79720e",
          "gasUsed": "0x7167",
          "effectiveGasPrice": "0x420390",
          "blobGasUsed": "0x0",
          "from": "0x8c0686723804a0b7201151852c94bd17dd043c21",
          "to": "0x82119d1846a18a2677469bb529d54f740b7f9cd6",
          "contractAddress": null
        }
      ],
      "libraries": [],
      "pending": [],
      "returns": {},
      "timestamp": 1742675922,
      "chain": 11155111,
      "commit": "76ce9e9"
    },
    {
      "transactions": [
        {
          "hash": "0x92342ab6dd664a639462fcc1b0837a286bcb60542f5be84b35e8cf938329e420",
          "transactionType": "CALL",
          "contractName": null,
          "contractAddress": "0xcd05c42f95750b2d688cf01b9a8693d5fd98c4e3",
          "function": "setEthereumContract(address)",
          "arguments": [
            "0x82119D1846A18A2677469BB529d54f740b7f9cD6"
          ],
          "transaction": {
            "from": "0x8c0686723804a0b7201151852c94bd17dd043c21",
            "to": "0xcd05c42f95750b2d688cf01b9a8693d5fd98c4e3",
            "gas": "0xec11",
            "value": "0x0",
            "input": "0x0804294000000000000000000000000082119d1846a18a2677469bb529d54f740b7f9cd6",
            "nonce": "0x5c",
            "chainId": "0x66eee"
          },
          "additionalContracts": [],
          "isFixedGasLimit": false
        }
      ],
      "receipts": [
        {
          "status": "0x1",
          "cumulativeGasUsed": "0x10621",
          "logs": [],
          "logsBloom": "0x00000000000000000000000000000000000000000000000000000000000000000000000000000000000000000000000000000000000000000000000000000000000000000000000000000000000000000000000000000000000000000000000000000000000000000000000000000000000000000000000000000000000000000000000000000000000000000000000000000000000000000000000000000000000000000000000000000000000000000000000000000000000000000000000000000000000000000000000000000000000000000000000000000000000000000000000000000000000000000000000000000000000000000000000000000000",
          "type": "0x2",
          "transactionHash": "0x92342ab6dd664a639462fcc1b0837a286bcb60542f5be84b35e8cf938329e420",
          "transactionIndex": "0x2",
          "blockHash": "0xc2396e95d181ba6ff7c076ed4a3edaccc7b601b480ff4828594266ca47f85c5f",
          "blockNumber": "0x80a0dd3",
          "gasUsed": "0xb419",
          "effectiveGasPrice": "0x5f5e100",
          "from": "0x8c0686723804a0b7201151852c94bd17dd043c21",
          "to": "0xcd05c42f95750b2d688cf01b9a8693d5fd98c4e3",
          "contractAddress": null,
          "gasUsedForL1": "0x0",
          "l1BlockNumber": "0x79720d",
          "timeboosted": false
        }
      ],
      "libraries": [],
      "pending": [],
      "returns": {},
      "timestamp": 1742675924,
      "chain": 421614,
      "commit": "76ce9e9"
    }
  ],
  "timestamp": 1742675933
}